{
  "contractName": "Election",
  "abi": [
    {
      "inputs": [
        {
          "internalType": "string",
          "name": "key",
          "type": "string"
        }
      ],
      "name": "savePublicKey",
      "outputs": [],
      "stateMutability": "nonpayable",
      "type": "function"
    },
    {
      "inputs": [
        {
          "internalType": "string[]",
          "name": "names",
          "type": "string[]"
        },
        {
          "internalType": "uint256[]",
          "name": "numbers",
          "type": "uint256[]"
        }
      ],
      "name": "saveCandidates",
      "outputs": [],
      "stateMutability": "nonpayable",
      "type": "function"
    },
    {
      "inputs": [
        {
          "internalType": "uint256",
          "name": "sum",
          "type": "uint256"
        },
        {
          "internalType": "uint64[]",
          "name": "scores",
          "type": "uint64[]"
        },
        {
          "internalType": "string",
          "name": "ephermal",
          "type": "string"
        }
      ],
      "name": "saveResult",
      "outputs": [],
      "stateMutability": "nonpayable",
      "type": "function"
    },
    {
      "inputs": [
        {
          "internalType": "string",
          "name": "newKey",
          "type": "string"
        }
      ],
      "name": "saveVoterKey",
      "outputs": [],
      "stateMutability": "nonpayable",
      "type": "function"
    },
    {
      "inputs": [
        {
          "internalType": "string",
          "name": "newVote",
          "type": "string"
        }
      ],
      "name": "saveVote",
      "outputs": [],
      "stateMutability": "nonpayable",
      "type": "function"
    },
    {
      "inputs": [],
      "name": "getPublicKey",
      "outputs": [
        {
          "internalType": "string",
          "name": "",
          "type": "string"
        }
      ],
      "stateMutability": "view",
      "type": "function",
      "constant": true
    },
    {
      "inputs": [],
      "name": "getCandidates",
      "outputs": [
        {
          "components": [
            {
              "internalType": "string",
              "name": "fullName",
              "type": "string"
            },
            {
              "internalType": "uint256",
              "name": "number",
              "type": "uint256"
            }
          ],
          "internalType": "struct Election.Candidate[]",
          "name": "",
          "type": "tuple[]"
        }
      ],
      "stateMutability": "view",
      "type": "function",
      "constant": true
    },
    {
      "inputs": [],
      "name": "getVotes",
      "outputs": [
        {
          "internalType": "string[]",
          "name": "",
          "type": "string[]"
        }
      ],
      "stateMutability": "view",
      "type": "function",
      "constant": true
    },
    {
      "inputs": [],
      "name": "getResult",
      "outputs": [
        {
          "components": [
            {
              "internalType": "uint256",
              "name": "voteSum",
              "type": "uint256"
            },
            {
              "internalType": "uint64[]",
              "name": "individualScores",
              "type": "uint64[]"
            },
            {
              "internalType": "string",
              "name": "ephermalKey",
              "type": "string"
            }
          ],
          "internalType": "struct Election.Result",
          "name": "",
          "type": "tuple"
        }
      ],
      "stateMutability": "view",
      "type": "function",
      "constant": true
    }
  ],
  "bytecode": "0x608060405234801561001057600080fd5b506111b0806100206000396000f3fe608060405234801561001057600080fd5b50600436106100935760003560e01c8063a7e8d06811610066578063a7e8d0681461010e578063a897f2251461012a578063ce00d63f14610146578063d8eb8e9014610162578063de2927891461017e57610093565b806306a49fce146100985780630dc96015146100b65780632e334452146100d4578063a534d131146100f2575b600080fd5b6100a061019c565b6040516100ad9190610ecc565b60405180910390f35b6100be6102a7565b6040516100cb9190610eaa565b60405180910390f35b6100dc610390565b6040516100e99190610eee565b60405180910390f35b61010c60048036038101906101079190610b3e565b610432565b005b61012860048036038101906101239190610ad2565b610471565b005b610144600480360381019061013f9190610b3e565b61051e565b005b610160600480360381019061015b9190610b7f565b61055d565b005b61017c60048036038101906101779190610b3e565b6105c5565b005b6101866105df565b6040516101939190610f10565b60405180910390f35b60606003805480602002602001604051908101604052809291908181526020016000905b8282101561029e5783829060005260206000209060020201604051806040016040529081600082018054600181600116156101000203166002900480601f01602080910402602001604051908101604052809291908181526020018280546001816001161561010002031660029004801561027c5780601f106102515761010080835404028352916020019161027c565b820191906000526020600020905b81548152906001019060200180831161025f57829003601f168201915b50505050508152602001600182015481525050815260200190600101906101c0565b50505050905090565b60606005805480602002602001604051908101604052809291908181526020016000905b82821015610387578382906000526020600020018054600181600116156101000203166002900480601f0160208091040260200160405190810160405280929190818152602001828054600181600116156101000203166002900480156103735780601f1061034857610100808354040283529160200191610373565b820191906000526020600020905b81548152906001019060200180831161035657829003601f168201915b5050505050815260200190600101906102cb565b50505050905090565b606060068054600181600116156101000203166002900480601f0160208091040260200160405190810160405280929190818152602001828054600181600116156101000203166002900480156104285780601f106103fd57610100808354040283529160200191610428565b820191906000526020600020905b81548152906001019060200180831161040b57829003601f168201915b5050505050905090565b60058190806001815401808255809150506001900390600052602060002001600090919091909150908051906020019061046d929190610731565b5050565b60005b8251811015610519576003604051806040016040528085848151811061049657fe5b602002602001015181526020018484815181106104af57fe5b6020026020010151815250908060018154018082558091505060019003906000526020600020906002020160009091909190915060008201518160000190805190602001906104ff929190610731565b506020820151816001015550508080600101915050610474565b505050565b600481908060018154018082558091505060019003906000526020600020016000909190919091509080519060200190610559929190610731565b5050565b6040518060600160405280848152602001838152602001828152506000808201518160000155602082015181600101908051906020019061059f9291906107b1565b5060408201518160020190805190602001906105bc929190610731565b50905050505050565b80600690805190602001906105db929190610731565b5050565b6105e761086d565b6000604051806060016040529081600082015481526020016001820180548060200260200160405190810160405280929190818152602001828054801561068157602002820191906000526020600020906000905b82829054906101000a900467ffffffffffffffff1667ffffffffffffffff168152602001906008019060208260070104928301926001038202915080841161063c5790505b50505050508152602001600282018054600181600116156101000203166002900480601f0160208091040260200160405190810160405280929190818152602001828054600181600116156101000203166002900480156107235780601f106106f857610100808354040283529160200191610723565b820191906000526020600020905b81548152906001019060200180831161070657829003601f168201915b505050505081525050905090565b828054600181600116156101000203166002900490600052602060002090601f016020900481019282601f1061077257805160ff19168380011785556107a0565b828001600101855582156107a0579182015b8281111561079f578251825591602001919060010190610784565b5b5090506107ad919061088e565b5090565b8280548282559060005260206000209060030160049004810192821561085c5791602002820160005b8382111561082657835183826101000a81548167ffffffffffffffff021916908367ffffffffffffffff16021790555092602001926008016020816007010492830192600103026107da565b801561085a5782816101000a81549067ffffffffffffffff0219169055600801602081600701049283019260010302610826565b505b50905061086991906108ab565b5090565b60405180606001604052806000815260200160608152602001606081525090565b5b808211156108a757600081600090555060010161088f565b5090565b5b808211156108d657600081816101000a81549067ffffffffffffffff0219169055506001016108ac565b5090565b600082601f8301126108eb57600080fd5b81356108fe6108f982610f5f565b610f32565b9150818183526020840193506020810190508360005b83811015610944578135860161092a8882610a54565b845260208401935060208301925050600181019050610914565b5050505092915050565b600082601f83011261095f57600080fd5b813561097261096d82610f87565b610f32565b9150818183526020840193506020810190508385602084028201111561099757600080fd5b60005b838110156109c757816109ad8882610aa8565b84526020840193506020830192505060018101905061099a565b5050505092915050565b600082601f8301126109e257600080fd5b81356109f56109f082610faf565b610f32565b91508181835260208401935060208101905083856020840282011115610a1a57600080fd5b60005b83811015610a4a5781610a308882610abd565b845260208401935060208301925050600181019050610a1d565b5050505092915050565b600082601f830112610a6557600080fd5b8135610a78610a7382610fd7565b610f32565b91508082526020830160208301858383011115610a9457600080fd5b610a9f8382846110f9565b50505092915050565b600081359050610ab78161114c565b92915050565b600081359050610acc81611163565b92915050565b60008060408385031215610ae557600080fd5b600083013567ffffffffffffffff811115610aff57600080fd5b610b0b858286016108da565b925050602083013567ffffffffffffffff811115610b2857600080fd5b610b348582860161094e565b9150509250929050565b600060208284031215610b5057600080fd5b600082013567ffffffffffffffff811115610b6a57600080fd5b610b7684828501610a54565b91505092915050565b600080600060608486031215610b9457600080fd5b6000610ba286828701610aa8565b935050602084013567ffffffffffffffff811115610bbf57600080fd5b610bcb868287016109d1565b925050604084013567ffffffffffffffff811115610be857600080fd5b610bf486828701610a54565b9150509250925092565b6000610c0a8383610d86565b905092915050565b6000610c1e8383610df8565b905092915050565b6000610c328383610e9b565b60208301905092915050565b6000610c4982611033565b610c538185611086565b935083602082028501610c6585611003565b8060005b85811015610ca15784840389528151610c828582610bfe565b9450610c8d8361105f565b925060208a01995050600181019050610c69565b50829750879550505050505092915050565b6000610cbe8261103e565b610cc88185611097565b935083602082028501610cda85611013565b8060005b85811015610d165784840389528151610cf78582610c12565b9450610d028361106c565b925060208a01995050600181019050610cde565b50829750879550505050505092915050565b6000610d3382611049565b610d3d81856110a8565b9350610d4883611023565b8060005b83811015610d79578151610d608882610c26565b9750610d6b83611079565b925050600181019050610d4c565b5085935050505092915050565b6000610d9182611054565b610d9b81856110b9565b9350610dab818560208601611108565b610db48161113b565b840191505092915050565b6000610dca82611054565b610dd481856110ca565b9350610de4818560208601611108565b610ded8161113b565b840191505092915050565b60006040830160008301518482036000860152610e158282610d86565b9150506020830151610e2a6020860182610e8c565b508091505092915050565b6000606083016000830151610e4d6000860182610e8c565b5060208301518482036020860152610e658282610d28565b91505060408301518482036040860152610e7f8282610d86565b9150508091505092915050565b610e95816110db565b82525050565b610ea4816110e5565b82525050565b60006020820190508181036000830152610ec48184610c3e565b905092915050565b60006020820190508181036000830152610ee68184610cb3565b905092915050565b60006020820190508181036000830152610f088184610dbf565b905092915050565b60006020820190508181036000830152610f2a8184610e35565b905092915050565b6000604051905081810181811067ffffffffffffffff82111715610f5557600080fd5b8060405250919050565b600067ffffffffffffffff821115610f7657600080fd5b602082029050602081019050919050565b600067ffffffffffffffff821115610f9e57600080fd5b602082029050602081019050919050565b600067ffffffffffffffff821115610fc657600080fd5b602082029050602081019050919050565b600067ffffffffffffffff821115610fee57600080fd5b601f19601f8301169050602081019050919050565b6000819050602082019050919050565b6000819050602082019050919050565b6000819050602082019050919050565b600081519050919050565b600081519050919050565b600081519050919050565b600081519050919050565b6000602082019050919050565b6000602082019050919050565b6000602082019050919050565b600082825260208201905092915050565b600082825260208201905092915050565b600082825260208201905092915050565b600082825260208201905092915050565b600082825260208201905092915050565b6000819050919050565b600067ffffffffffffffff82169050919050565b82818337600083830152505050565b60005b8381101561112657808201518184015260208101905061110b565b83811115611135576000848401525b50505050565b6000601f19601f8301169050919050565b611155816110db565b811461116057600080fd5b50565b61116c816110e5565b811461117757600080fd5b5056fea2646970667358221220e5c40d0a646a241ed11c34b78d3da955eb8c925051fe09f16328aec24b95212164736f6c634300060c0033",
  "immutableReferences": {},
  "source": "// SPDX-License-Identifier: GPL-3.0\r\npragma solidity >=0.6.12;\r\npragma experimental ABIEncoderV2;\r\n\r\ncontract Election {\r\n    struct Candidate {\r\n        string fullName;\r\n        uint number;\r\n    }\r\n\r\n    struct Result {\r\n        uint256 voteSum;\r\n        uint64[] individualScores;\r\n        string ephermalKey;\r\n    }\r\n\r\n    Result electionResult;\r\n    Candidate[] candidates;\r\n    string[] voterKeys;\r\n    string[] votes;\r\n    string publicKey;\r\n\r\n    function savePublicKey (string memory key) public {\r\n        publicKey = key;\r\n    }\r\n\r\n    function saveCandidates (string[] memory names, uint[] memory numbers) public {\r\n        for (uint i = 0; i < names.length; i++){\r\n            candidates.push(Candidate({fullName: names[i], number: numbers[i]}));\r\n        }\r\n    }\r\n\r\n    function saveResult(uint256 sum, uint64[] memory scores, string memory ephermal) public {\r\n        electionResult = Result({voteSum: sum, individualScores: scores, ephermalKey: ephermal});\r\n    }\r\n\r\n    function saveVoterKey(string memory newKey) public {\r\n        voterKeys.push(newKey);\r\n    }\r\n\r\n    function saveVote(string memory newVote) public {\r\n        votes.push(newVote);\r\n    }\r\n\r\n    function getPublicKey() public view returns (string memory) {\r\n        return publicKey;\r\n    }\r\n\r\n    function getCandidates() public view returns (Candidate[] memory) {\r\n        return candidates;\r\n    }\r\n\r\n    function getVotes() public view returns (string[] memory) {\r\n        return votes;\r\n    }\r\n\r\n    function getResult() public view returns (Result memory){\r\n        return electionResult;\r\n    }\r\n}\r\n",
  "sourcePath": "C:/Users/tzymk/Desktop/Studia/Grupowy/App/s-vote/server/truffle_contracts/contracts/Election.sol",
  "compiler": {
    "name": "solc",
    "version": "0.6.12+commit.27d51765.Emscripten.clang"
  },
  "schemaVersion": "3.3.2",
  "updatedAt": "2021-01-04T16:44:59.988Z",
  "networkType": "ethereum",
  "devdoc": {
    "kind": "dev",
    "methods": {},
    "version": 1
  },
  "userdoc": {
    "kind": "user",
    "methods": {},
    "version": 1
  }
}