{
  "contractName": "Election",
  "abi": [
    {
      "stateMutability": "payable",
      "type": "receive",
      "payable": true
    },
    {
      "inputs": [
        {
          "internalType": "string",
          "name": "key",
          "type": "string"
        }
      ],
      "name": "savePublicKey",
      "outputs": [],
      "stateMutability": "nonpayable",
      "type": "function"
    },
    {
      "inputs": [
        {
          "internalType": "string[]",
          "name": "names",
          "type": "string[]"
        },
        {
          "internalType": "uint256[]",
          "name": "numbers",
          "type": "uint256[]"
        }
      ],
      "name": "saveCandidates",
      "outputs": [],
      "stateMutability": "nonpayable",
      "type": "function"
    },
    {
      "inputs": [
        {
          "internalType": "uint256",
          "name": "sum",
          "type": "uint256"
        },
        {
          "internalType": "uint64[]",
          "name": "scores",
          "type": "uint64[]"
        },
        {
          "internalType": "string",
          "name": "ephermal",
          "type": "string"
        }
      ],
      "name": "saveResult",
      "outputs": [],
      "stateMutability": "nonpayable",
      "type": "function"
    },
    {
      "inputs": [
        {
          "internalType": "string",
          "name": "newKey",
          "type": "string"
        }
      ],
      "name": "saveVoterKey",
      "outputs": [],
      "stateMutability": "nonpayable",
      "type": "function"
    },
    {
      "inputs": [
        {
          "internalType": "string",
          "name": "newVote",
          "type": "string"
        }
      ],
      "name": "saveVote",
      "outputs": [],
      "stateMutability": "payable",
      "type": "function",
      "payable": true
    },
    {
      "inputs": [],
      "name": "getPublicKey",
      "outputs": [
        {
          "internalType": "string",
          "name": "",
          "type": "string"
        }
      ],
      "stateMutability": "view",
      "type": "function",
      "constant": true
    },
    {
      "inputs": [],
      "name": "getCandidates",
      "outputs": [
        {
          "components": [
            {
              "internalType": "string",
              "name": "fullName",
              "type": "string"
            },
            {
              "internalType": "uint256",
              "name": "number",
              "type": "uint256"
            }
          ],
          "internalType": "struct Election.Candidate[]",
          "name": "",
          "type": "tuple[]"
        }
      ],
      "stateMutability": "view",
      "type": "function",
      "constant": true
    },
    {
      "inputs": [],
      "name": "getVotes",
      "outputs": [
        {
          "internalType": "string[]",
          "name": "",
          "type": "string[]"
        }
      ],
      "stateMutability": "view",
      "type": "function",
      "constant": true
    },
    {
      "inputs": [],
      "name": "getResult",
      "outputs": [
        {
          "components": [
            {
              "internalType": "uint256",
              "name": "voteSum",
              "type": "uint256"
            },
            {
              "internalType": "uint64[]",
              "name": "individualScores",
              "type": "uint64[]"
            },
            {
              "internalType": "string",
              "name": "ephermalKey",
              "type": "string"
            }
          ],
          "internalType": "struct Election.Result",
          "name": "",
          "type": "tuple"
        }
      ],
      "stateMutability": "view",
      "type": "function",
      "constant": true
    }
  ],
  "bytecode": "0x608060405234801561001057600080fd5b50611223806100206000396000f3fe60806040526004361061008a5760003560e01c8063a7e8d06811610059578063a7e8d06814610133578063a897f2251461015c578063ce00d63f14610185578063d8eb8e90146101ae578063de292789146101d757610091565b806306a49fce146100965780630dc96015146100c15780632e334452146100ec578063a534d1311461011757610091565b3661009157005b600080fd5b3480156100a257600080fd5b506100ab610202565b6040516100b89190610f3f565b60405180910390f35b3480156100cd57600080fd5b506100d661030d565b6040516100e39190610f1d565b60405180910390f35b3480156100f857600080fd5b506101016103f6565b60405161010e9190610f61565b60405180910390f35b610131600480360381019061012c9190610bb1565b610498565b005b34801561013f57600080fd5b5061015a60048036038101906101559190610b45565b6104e4565b005b34801561016857600080fd5b50610183600480360381019061017e9190610bb1565b610591565b005b34801561019157600080fd5b506101ac60048036038101906101a79190610bf2565b6105d0565b005b3480156101ba57600080fd5b506101d560048036038101906101d09190610bb1565b610638565b005b3480156101e357600080fd5b506101ec610652565b6040516101f99190610f83565b60405180910390f35b60606003805480602002602001604051908101604052809291908181526020016000905b828210156103045783829060005260206000209060020201604051806040016040529081600082018054600181600116156101000203166002900480601f0160208091040260200160405190810160405280929190818152602001828054600181600116156101000203166002900480156102e25780601f106102b7576101008083540402835291602001916102e2565b820191906000526020600020905b8154815290600101906020018083116102c557829003601f168201915b5050505050815260200160018201548152505081526020019060010190610226565b50505050905090565b60606005805480602002602001604051908101604052809291908181526020016000905b828210156103ed578382906000526020600020018054600181600116156101000203166002900480601f0160208091040260200160405190810160405280929190818152602001828054600181600116156101000203166002900480156103d95780601f106103ae576101008083540402835291602001916103d9565b820191906000526020600020905b8154815290600101906020018083116103bc57829003601f168201915b505050505081526020019060010190610331565b50505050905090565b606060068054600181600116156101000203166002900480601f01602080910402602001604051908101604052809291908181526020018280546001816001161561010002031660029004801561048e5780601f106104635761010080835404028352916020019161048e565b820191906000526020600020905b81548152906001019060200180831161047157829003601f168201915b5050505050905090565b600134146104a557600080fd5b6005819080600181540180825580915050600190039060005260206000200160009091909190915090805190602001906104e09291906107a4565b5050565b60005b825181101561058c576003604051806040016040528085848151811061050957fe5b6020026020010151815260200184848151811061052257fe5b6020026020010151815250908060018154018082558091505060019003906000526020600020906002020160009091909190915060008201518160000190805190602001906105729291906107a4565b5060208201518160010155505080806001019150506104e7565b505050565b6004819080600181540180825580915050600190039060005260206000200160009091909190915090805190602001906105cc9291906107a4565b5050565b60405180606001604052808481526020018381526020018281525060008082015181600001556020820151816001019080519060200190610612929190610824565b50604082015181600201908051906020019061062f9291906107a4565b50905050505050565b806006908051906020019061064e9291906107a4565b5050565b61065a6108e0565b600060405180606001604052908160008201548152602001600182018054806020026020016040519081016040528092919081815260200182805480156106f457602002820191906000526020600020906000905b82829054906101000a900467ffffffffffffffff1667ffffffffffffffff16815260200190600801906020826007010492830192600103820291508084116106af5790505b50505050508152602001600282018054600181600116156101000203166002900480601f0160208091040260200160405190810160405280929190818152602001828054600181600116156101000203166002900480156107965780601f1061076b57610100808354040283529160200191610796565b820191906000526020600020905b81548152906001019060200180831161077957829003601f168201915b505050505081525050905090565b828054600181600116156101000203166002900490600052602060002090601f016020900481019282601f106107e557805160ff1916838001178555610813565b82800160010185558215610813579182015b828111156108125782518255916020019190600101906107f7565b5b5090506108209190610901565b5090565b828054828255906000526020600020906003016004900481019282156108cf5791602002820160005b8382111561089957835183826101000a81548167ffffffffffffffff021916908367ffffffffffffffff160217905550926020019260080160208160070104928301926001030261084d565b80156108cd5782816101000a81549067ffffffffffffffff0219169055600801602081600701049283019260010302610899565b505b5090506108dc919061091e565b5090565b60405180606001604052806000815260200160608152602001606081525090565b5b8082111561091a576000816000905550600101610902565b5090565b5b8082111561094957600081816101000a81549067ffffffffffffffff02191690555060010161091f565b5090565b600082601f83011261095e57600080fd5b813561097161096c82610fd2565b610fa5565b9150818183526020840193506020810190508360005b838110156109b7578135860161099d8882610ac7565b845260208401935060208301925050600181019050610987565b5050505092915050565b600082601f8301126109d257600080fd5b81356109e56109e082610ffa565b610fa5565b91508181835260208401935060208101905083856020840282011115610a0a57600080fd5b60005b83811015610a3a5781610a208882610b1b565b845260208401935060208301925050600181019050610a0d565b5050505092915050565b600082601f830112610a5557600080fd5b8135610a68610a6382611022565b610fa5565b91508181835260208401935060208101905083856020840282011115610a8d57600080fd5b60005b83811015610abd5781610aa38882610b30565b845260208401935060208301925050600181019050610a90565b5050505092915050565b600082601f830112610ad857600080fd5b8135610aeb610ae68261104a565b610fa5565b91508082526020830160208301858383011115610b0757600080fd5b610b1283828461116c565b50505092915050565b600081359050610b2a816111bf565b92915050565b600081359050610b3f816111d6565b92915050565b60008060408385031215610b5857600080fd5b600083013567ffffffffffffffff811115610b7257600080fd5b610b7e8582860161094d565b925050602083013567ffffffffffffffff811115610b9b57600080fd5b610ba7858286016109c1565b9150509250929050565b600060208284031215610bc357600080fd5b600082013567ffffffffffffffff811115610bdd57600080fd5b610be984828501610ac7565b91505092915050565b600080600060608486031215610c0757600080fd5b6000610c1586828701610b1b565b935050602084013567ffffffffffffffff811115610c3257600080fd5b610c3e86828701610a44565b925050604084013567ffffffffffffffff811115610c5b57600080fd5b610c6786828701610ac7565b9150509250925092565b6000610c7d8383610df9565b905092915050565b6000610c918383610e6b565b905092915050565b6000610ca58383610f0e565b60208301905092915050565b6000610cbc826110a6565b610cc681856110f9565b935083602082028501610cd885611076565b8060005b85811015610d145784840389528151610cf58582610c71565b9450610d00836110d2565b925060208a01995050600181019050610cdc565b50829750879550505050505092915050565b6000610d31826110b1565b610d3b818561110a565b935083602082028501610d4d85611086565b8060005b85811015610d895784840389528151610d6a8582610c85565b9450610d75836110df565b925060208a01995050600181019050610d51565b50829750879550505050505092915050565b6000610da6826110bc565b610db0818561111b565b9350610dbb83611096565b8060005b83811015610dec578151610dd38882610c99565b9750610dde836110ec565b925050600181019050610dbf565b5085935050505092915050565b6000610e04826110c7565b610e0e818561112c565b9350610e1e81856020860161117b565b610e27816111ae565b840191505092915050565b6000610e3d826110c7565b610e47818561113d565b9350610e5781856020860161117b565b610e60816111ae565b840191505092915050565b60006040830160008301518482036000860152610e888282610df9565b9150506020830151610e9d6020860182610eff565b508091505092915050565b6000606083016000830151610ec06000860182610eff565b5060208301518482036020860152610ed88282610d9b565b91505060408301518482036040860152610ef28282610df9565b9150508091505092915050565b610f088161114e565b82525050565b610f1781611158565b82525050565b60006020820190508181036000830152610f378184610cb1565b905092915050565b60006020820190508181036000830152610f598184610d26565b905092915050565b60006020820190508181036000830152610f7b8184610e32565b905092915050565b60006020820190508181036000830152610f9d8184610ea8565b905092915050565b6000604051905081810181811067ffffffffffffffff82111715610fc857600080fd5b8060405250919050565b600067ffffffffffffffff821115610fe957600080fd5b602082029050602081019050919050565b600067ffffffffffffffff82111561101157600080fd5b602082029050602081019050919050565b600067ffffffffffffffff82111561103957600080fd5b602082029050602081019050919050565b600067ffffffffffffffff82111561106157600080fd5b601f19601f8301169050602081019050919050565b6000819050602082019050919050565b6000819050602082019050919050565b6000819050602082019050919050565b600081519050919050565b600081519050919050565b600081519050919050565b600081519050919050565b6000602082019050919050565b6000602082019050919050565b6000602082019050919050565b600082825260208201905092915050565b600082825260208201905092915050565b600082825260208201905092915050565b600082825260208201905092915050565b600082825260208201905092915050565b6000819050919050565b600067ffffffffffffffff82169050919050565b82818337600083830152505050565b60005b8381101561119957808201518184015260208101905061117e565b838111156111a8576000848401525b50505050565b6000601f19601f8301169050919050565b6111c88161114e565b81146111d357600080fd5b50565b6111df81611158565b81146111ea57600080fd5b5056fea264697066735822122013dbc819c574dc1e48cc528f18c60358904e5a928fa9b87a86e400d6db64b07764736f6c634300060c0033",
  "immutableReferences": {},
  "source": "// SPDX-License-Identifier: GPL-3.0\r\npragma solidity >=0.6.12;\r\npragma experimental ABIEncoderV2;\r\n\r\ncontract Election {\r\n    struct Candidate {\r\n        string fullName;\r\n        uint number;\r\n    }\r\n\r\n    struct Result {\r\n        uint256 voteSum;\r\n        uint64[] individualScores;\r\n        string ephermalKey;\r\n    }\r\n\r\n    Result electionResult;\r\n    Candidate[] candidates;\r\n    string[] voterKeys;\r\n    string[] votes;\r\n    string publicKey;\r\n\r\n    receive() external payable {}  // allows to receive ether\r\n\r\n    function savePublicKey (string memory key) public {\r\n        publicKey = key;\r\n    }\r\n\r\n    function saveCandidates (string[] memory names, uint[] memory numbers) public {\r\n        for (uint i = 0; i < names.length; i++){\r\n            candidates.push(Candidate({fullName: names[i], number: numbers[i]}));\r\n        }\r\n    }\r\n\r\n    function saveResult(uint256 sum, uint64[] memory scores, string memory ephermal) public {\r\n        electionResult = Result({voteSum: sum, individualScores: scores, ephermalKey: ephermal});\r\n    }\r\n\r\n    function saveVoterKey(string memory newKey) public {\r\n        voterKeys.push(newKey);\r\n    }\r\n\r\n    function saveVote(string memory newVote) public payable {\r\n        require(msg.value == 1);  // require to send 1ETH along the new vote\r\n        votes.push(newVote);\r\n    }\r\n\r\n    function getPublicKey() public view returns (string memory) {\r\n        return publicKey;\r\n    }\r\n\r\n    function getCandidates() public view returns (Candidate[] memory) {\r\n        return candidates;\r\n    }\r\n\r\n    function getVotes() public view returns (string[] memory) {\r\n        return votes;\r\n    }\r\n\r\n    function getResult() public view returns (Result memory){\r\n        return electionResult;\r\n    }\r\n}\r\n",
  "sourcePath": "C:/Users/tzymk/Desktop/Studia/Grupowy/App/s-vote/server/truffle_contracts/contracts/Election.sol",
  "compiler": {
    "name": "solc",
    "version": "0.6.12+commit.27d51765.Emscripten.clang"
  },
  "schemaVersion": "3.3.2",
  "updatedAt": "2021-01-20T16:41:35.920Z",
  "networkType": "ethereum",
  "devdoc": {
    "kind": "dev",
    "methods": {},
    "version": 1
  },
  "userdoc": {
    "kind": "user",
    "methods": {},
    "version": 1
  }
}