{
  "contractName": "Election",
  "abi": [
    {
      "inputs": [
        {
          "internalType": "string",
          "name": "key",
          "type": "string"
        }
      ],
      "name": "savePublicKey",
      "outputs": [],
      "stateMutability": "nonpayable",
      "type": "function"
    },
    {
      "inputs": [
        {
          "internalType": "string[]",
          "name": "names",
          "type": "string[]"
        },
        {
          "internalType": "uint256[]",
          "name": "numbers",
          "type": "uint256[]"
        }
      ],
      "name": "saveCandidates",
      "outputs": [],
      "stateMutability": "nonpayable",
      "type": "function"
    },
    {
      "inputs": [],
      "name": "getPublicKey",
      "outputs": [
        {
          "internalType": "string",
          "name": "",
          "type": "string"
        }
      ],
      "stateMutability": "view",
      "type": "function",
      "constant": true
    }
  ],
  "bytecode": "0x608060405234801561001057600080fd5b50610679806100206000396000f3fe608060405234801561001057600080fd5b50600436106100415760003560e01c80632e33445214610046578063a7e8d06814610064578063d8eb8e9014610080575b600080fd5b61004e61009c565b60405161005b91906104e8565b60405180910390f35b61007e60048036038101906100799190610402565b61013e565b005b61009a6004803603810190610095919061046e565b6101eb565b005b606060018054600181600116156101000203166002900480601f0160208091040260200160405190810160405280929190818152602001828054600181600116156101000203166002900480156101345780601f1061010957610100808354040283529160200191610134565b820191906000526020600020905b81548152906001019060200180831161011757829003601f168201915b5050505050905090565b60005b82518110156101e6576000604051806040016040528085848151811061016357fe5b6020026020010151815260200184848151811061017c57fe5b6020026020010151815250908060018154018082558091505060019003906000526020600020906002020160009091909190915060008201518160000190805190602001906101cc929190610205565b506020820151816001015550508080600101915050610141565b505050565b8060019080519060200190610201929190610205565b5050565b828054600181600116156101000203166002900490600052602060002090601f016020900481019282601f1061024657805160ff1916838001178555610274565b82800160010185558215610274579182015b82811115610273578251825591602001919060010190610258565b5b5090506102819190610285565b5090565b5b8082111561029e576000816000905550600101610286565b5090565b600082601f8301126102b357600080fd5b81356102c66102c182610537565b61050a565b9150818183526020840193506020810190508360005b8381101561030c57813586016102f28882610399565b8452602084019350602083019250506001810190506102dc565b5050505092915050565b600082601f83011261032757600080fd5b813561033a6103358261055f565b61050a565b9150818183526020840193506020810190508385602084028201111561035f57600080fd5b60005b8381101561038f578161037588826103ed565b845260208401935060208301925050600181019050610362565b5050505092915050565b600082601f8301126103aa57600080fd5b81356103bd6103b882610587565b61050a565b915080825260208301602083018583830111156103d957600080fd5b6103e48382846105d9565b50505092915050565b6000813590506103fc8161062c565b92915050565b6000806040838503121561041557600080fd5b600083013567ffffffffffffffff81111561042f57600080fd5b61043b858286016102a2565b925050602083013567ffffffffffffffff81111561045857600080fd5b61046485828601610316565b9150509250929050565b60006020828403121561048057600080fd5b600082013567ffffffffffffffff81111561049a57600080fd5b6104a684828501610399565b91505092915050565b60006104ba826105b3565b6104c481856105be565b93506104d48185602086016105e8565b6104dd8161061b565b840191505092915050565b6000602082019050818103600083015261050281846104af565b905092915050565b6000604051905081810181811067ffffffffffffffff8211171561052d57600080fd5b8060405250919050565b600067ffffffffffffffff82111561054e57600080fd5b602082029050602081019050919050565b600067ffffffffffffffff82111561057657600080fd5b602082029050602081019050919050565b600067ffffffffffffffff82111561059e57600080fd5b601f19601f8301169050602081019050919050565b600081519050919050565b600082825260208201905092915050565b6000819050919050565b82818337600083830152505050565b60005b838110156106065780820151818401526020810190506105eb565b83811115610615576000848401525b50505050565b6000601f19601f8301169050919050565b610635816105cf565b811461064057600080fd5b5056fea2646970667358221220f618793dc9dd078dfff356790d8a0bbf5539e4a7e4bee9f55add6b898602ddfe64736f6c634300060c0033",
  "immutableReferences": {},
  "source": "// SPDX-License-Identifier: GPL-3.0\r\npragma solidity >=0.6.12;\r\npragma experimental ABIEncoderV2;\r\n\r\ncontract Election {\r\n    struct Candidate {\r\n        string fullName;\r\n        uint number;\r\n    }\r\n\r\n    struct Voter {\r\n        string fullName;\r\n        string publicKey;\r\n    }\r\n\r\n    Candidate[] candidates;\r\n    string publicKey;\r\n\r\n    function savePublicKey (string memory key) public {\r\n        publicKey = key;\r\n    }\r\n\r\n    function saveCandidates (string[] memory names, uint[] memory numbers) public {\r\n        for ( uint i = 0; i < names.length; i++){\r\n            candidates.push(Candidate({fullName: names[i], number: numbers[i]}));\r\n        }\r\n    }\r\n\r\n    function getPublicKey() public view returns (string memory) {\r\n        return publicKey;\r\n    }\r\n\r\n    // function getCandidates() public view returns (Candidate[] memory) {\r\n    //     return candidates;\r\n    // }\r\n\r\n}\r\n",
  "sourcePath": "C:/Users/tzymk/Desktop/Studia/Grupowy/App/s-vote/server/truffle_contracts/contracts/Election.sol",
  "compiler": {
    "name": "solc",
    "version": "0.6.12+commit.27d51765.Emscripten.clang"
  },
  "schemaVersion": "3.3.2",
  "updatedAt": "2020-11-09T09:33:43.678Z",
  "networkType": "ethereum",
  "devdoc": {
    "kind": "dev",
    "methods": {},
    "version": 1
  },
  "userdoc": {
    "kind": "user",
    "methods": {},
    "version": 1
  }
}