{
  "contractName": "Tester",
  "abi": [
    {
      "inputs": [
        {
          "internalType": "uint256",
          "name": "val",
          "type": "uint256"
        }
      ],
      "payable": false,
      "stateMutability": "nonpayable",
      "type": "constructor"
    },
    {
      "constant": false,
      "inputs": [
        {
          "internalType": "uint256",
          "name": "x",
          "type": "uint256"
        }
      ],
      "name": "set",
      "outputs": [],
      "payable": false,
      "stateMutability": "nonpayable",
      "type": "function"
    },
    {
      "constant": true,
      "inputs": [],
      "name": "get",
      "outputs": [
        {
          "internalType": "uint256",
          "name": "",
          "type": "uint256"
        }
      ],
      "payable": false,
      "stateMutability": "view",
      "type": "function"
    },
    {
      "constant": false,
      "inputs": [],
      "name": "increment",
      "outputs": [],
      "payable": false,
      "stateMutability": "nonpayable",
      "type": "function"
    }
  ],
  "bytecode": "0x608060405234801561001057600080fd5b506040516101403803806101408339818101604052602081101561003357600080fd5b8101908080519060200190929190505050806000819055505060e68061005a6000396000f3fe6080604052348015600f57600080fd5b5060043610603c5760003560e01c806360fe47b11460415780636d4ce63c14606c578063d09de08a146088575b600080fd5b606a60048036036020811015605557600080fd5b81019080803590602001909291905050506090565b005b6072609a565b6040518082815260200191505060405180910390f35b608e60a3565b005b8060008190555050565b60008054905090565b60016000540160008190555056fea265627a7a723158200886fc6a44d5268c99aa8048e45d064d8bc5d172ff0b0f62914585aa3c1173a864736f6c63430005100032",
  "source": "// SPDX-License-Identifier: GPL-3.0\r\npragma solidity >=0.4.16 <0.8.0;\r\n\r\ncontract Tester {\r\n    uint number;\r\n\r\n    constructor (uint256 val) public {\r\n        number = val;\r\n    }\r\n\r\n    function set(uint x) public {\r\n        number = x;\r\n    }\r\n\r\n    function get() public view returns (uint) {\r\n        return number;\r\n    }\r\n\r\n    function increment() public {\r\n        number = number + 1;\r\n    }\r\n}",
  "sourcePath": "C:/Users/tzymk/Desktop/Studia/Grupowy/App/s-vote/server/truffle_contracts/contracts/Tester.sol",
  "compiler": {
    "name": "solc",
    "version": "0.5.16+commit.9c3226ce.Emscripten.clang"
  },
  "schemaVersion": "3.3.2",
  "updatedAt": "2020-11-10T14:16:51.115Z",
  "networkType": "ethereum",
  "devdoc": {
    "methods": {}
  },
  "userdoc": {
    "methods": {}
  }
}